{
  "_format": "hh-sol-artifact-1",
  "contractName": "Marketplace",
  "sourceName": "contracts/Marketplace.sol",
  "abi": [
    {
      "inputs": [
        {
          "internalType": "uint256",
          "name": "_feePercent",
          "type": "uint256"
        }
      ],
      "stateMutability": "nonpayable",
      "type": "constructor"
    },
    {
      "anonymous": false,
      "inputs": [
        {
          "indexed": false,
          "internalType": "uint256",
          "name": "itemId",
          "type": "uint256"
        },
        {
          "indexed": true,
          "internalType": "address",
          "name": "nft",
          "type": "address"
        },
        {
          "indexed": false,
          "internalType": "uint256",
          "name": "tokenId",
          "type": "uint256"
        },
        {
          "indexed": false,
          "internalType": "uint256",
          "name": "price",
          "type": "uint256"
        },
        {
          "indexed": true,
          "internalType": "address",
          "name": "seller",
          "type": "address"
        },
        {
          "indexed": true,
          "internalType": "address",
          "name": "buyer",
          "type": "address"
        }
      ],
      "name": "Bought",
      "type": "event"
    },
    {
      "anonymous": false,
      "inputs": [
        {
          "indexed": false,
          "internalType": "uint256",
          "name": "itemId",
          "type": "uint256"
        },
        {
          "indexed": true,
          "internalType": "address",
          "name": "nft",
          "type": "address"
        },
        {
          "indexed": false,
          "internalType": "uint256",
          "name": "tokenId",
          "type": "uint256"
        },
        {
          "indexed": false,
          "internalType": "uint256",
          "name": "price",
          "type": "uint256"
        },
        {
          "indexed": true,
          "internalType": "address",
          "name": "seller",
          "type": "address"
        }
      ],
      "name": "Offered",
      "type": "event"
    },
    {
      "inputs": [
        {
          "internalType": "uint256",
          "name": "_itemId",
          "type": "uint256"
        }
      ],
      "name": "Buy",
      "outputs": [],
      "stateMutability": "payable",
      "type": "function"
    },
    {
      "inputs": [],
      "name": "NGO",
      "outputs": [
        {
          "internalType": "address payable",
          "name": "",
          "type": "address"
        }
      ],
      "stateMutability": "view",
      "type": "function"
    },
    {
      "inputs": [
        {
          "internalType": "uint256",
          "name": "_itemId",
          "type": "uint256"
        },
        {
          "internalType": "uint256",
          "name": "_price",
          "type": "uint256"
        }
      ],
      "name": "Sell",
      "outputs": [],
      "stateMutability": "payable",
      "type": "function"
    },
    {
      "inputs": [],
      "name": "feeAccount",
      "outputs": [
        {
          "internalType": "address payable",
          "name": "",
          "type": "address"
        }
      ],
      "stateMutability": "view",
      "type": "function"
    },
    {
      "inputs": [],
      "name": "feePercent",
      "outputs": [
        {
          "internalType": "uint256",
          "name": "",
          "type": "uint256"
        }
      ],
      "stateMutability": "view",
      "type": "function"
    },
    {
      "inputs": [],
      "name": "getNft",
      "outputs": [
        {
          "components": [
            {
              "internalType": "uint256",
              "name": "itemId",
              "type": "uint256"
            },
            {
              "internalType": "contract IERC721",
              "name": "nft",
              "type": "address"
            },
            {
              "internalType": "uint256",
              "name": "tokenId",
              "type": "uint256"
            },
            {
              "internalType": "uint256",
              "name": "prevPrice",
              "type": "uint256"
            },
            {
              "internalType": "uint256",
              "name": "price",
              "type": "uint256"
            },
            {
              "internalType": "address payable",
              "name": "seller",
              "type": "address"
            },
            {
              "internalType": "bool",
              "name": "toBeSold",
              "type": "bool"
            },
            {
              "internalType": "address payable",
              "name": "creator",
              "type": "address"
            },
            {
              "internalType": "uint256",
              "name": "percentageDonated",
              "type": "uint256"
            },
            {
              "internalType": "uint256",
              "name": "royaltyPercentage",
              "type": "uint256"
            }
          ],
          "internalType": "struct Marketplace.Item[]",
          "name": "",
          "type": "tuple[]"
        }
      ],
      "stateMutability": "view",
      "type": "function"
    },
    {
      "inputs": [
        {
          "internalType": "uint256",
          "name": "_itemId",
          "type": "uint256"
        }
      ],
      "name": "getTotalPrice",
      "outputs": [
        {
          "internalType": "uint256",
          "name": "",
          "type": "uint256"
        }
      ],
      "stateMutability": "view",
      "type": "function"
    },
    {
      "inputs": [],
      "name": "itemCount",
      "outputs": [
        {
          "internalType": "uint256",
          "name": "",
          "type": "uint256"
        }
      ],
      "stateMutability": "view",
      "type": "function"
    },
    {
      "inputs": [
        {
          "internalType": "uint256",
          "name": "",
          "type": "uint256"
        }
      ],
      "name": "items",
      "outputs": [
        {
          "internalType": "uint256",
          "name": "itemId",
          "type": "uint256"
        },
        {
          "internalType": "contract IERC721",
          "name": "nft",
          "type": "address"
        },
        {
          "internalType": "uint256",
          "name": "tokenId",
          "type": "uint256"
        },
        {
          "internalType": "uint256",
          "name": "prevPrice",
          "type": "uint256"
        },
        {
          "internalType": "uint256",
          "name": "price",
          "type": "uint256"
        },
        {
          "internalType": "address payable",
          "name": "seller",
          "type": "address"
        },
        {
          "internalType": "bool",
          "name": "toBeSold",
          "type": "bool"
        },
        {
          "internalType": "address payable",
          "name": "creator",
          "type": "address"
        },
        {
          "internalType": "uint256",
          "name": "percentageDonated",
          "type": "uint256"
        },
        {
          "internalType": "uint256",
          "name": "royaltyPercentage",
          "type": "uint256"
        }
      ],
      "stateMutability": "view",
      "type": "function"
    },
    {
      "inputs": [
        {
          "internalType": "contract IERC721",
          "name": "_nft",
          "type": "address"
        },
        {
          "internalType": "uint256",
          "name": "_tokenId",
          "type": "uint256"
        },
        {
          "internalType": "uint256",
          "name": "_price",
          "type": "uint256"
        },
        {
          "internalType": "uint256",
          "name": "_percentageDonated",
          "type": "uint256"
        },
        {
          "internalType": "uint256",
          "name": "_royalty",
          "type": "uint256"
        }
      ],
      "name": "makeNFT",
      "outputs": [],
      "stateMutability": "nonpayable",
      "type": "function"
    },
    {
      "inputs": [
        {
          "internalType": "address",
          "name": "",
          "type": "address"
        },
        {
          "internalType": "uint256",
          "name": "",
          "type": "uint256"
        }
      ],
      "name": "owned_nft",
      "outputs": [
        {
          "internalType": "uint256",
          "name": "itemId",
          "type": "uint256"
        },
        {
          "internalType": "contract IERC721",
          "name": "nft",
          "type": "address"
        },
        {
          "internalType": "uint256",
          "name": "tokenId",
          "type": "uint256"
        },
        {
          "internalType": "uint256",
          "name": "prevPrice",
          "type": "uint256"
        },
        {
          "internalType": "uint256",
          "name": "price",
          "type": "uint256"
        },
        {
          "internalType": "address payable",
          "name": "seller",
          "type": "address"
        },
        {
          "internalType": "bool",
          "name": "toBeSold",
          "type": "bool"
        },
        {
          "internalType": "address payable",
          "name": "creator",
          "type": "address"
        },
        {
          "internalType": "uint256",
          "name": "percentageDonated",
          "type": "uint256"
        },
        {
          "internalType": "uint256",
          "name": "royaltyPercentage",
          "type": "uint256"
        }
      ],
      "stateMutability": "view",
      "type": "function"
    },
    {
      "inputs": [
        {
          "internalType": "uint256",
          "name": "_itemId",
          "type": "uint256"
        }
      ],
      "name": "removeNFT",
      "outputs": [],
      "stateMutability": "nonpayable",
      "type": "function"
    },
    {
      "inputs": [
        {
          "internalType": "uint256",
          "name": "_price",
          "type": "uint256"
        },
        {
          "internalType": "uint256",
          "name": "_itemId",
          "type": "uint256"
        }
      ],
      "name": "updatePrice",
      "outputs": [],
      "stateMutability": "nonpayable",
      "type": "function"
    }
  ],
  "bytecode": "0x60e06040523480156200001157600080fd5b50604051620020e0380380620020e08339818101604052810190620000379190620000ee565b3373ffffffffffffffffffffffffffffffffffffffff1660808173ffffffffffffffffffffffffffffffffffffffff16815250508060a081815250503373ffffffffffffffffffffffffffffffffffffffff1660c08173ffffffffffffffffffffffffffffffffffffffff16815250505062000120565b600080fd5b6000819050919050565b620000c881620000b3565b8114620000d457600080fd5b50565b600081519050620000e881620000bd565b92915050565b600060208284031215620001075762000106620000ae565b5b60006200011784828501620000d7565b91505092915050565b60805160a05160c051611f7b620001656000396000818161095101526110b3015260008181610e940152611392015260008181610b1f0152610d8c0152611f7b6000f3fe6080604052600436106100c25760003560e01c806382367b2d1161007f578063ac513fb811610059578063ac513fb814610243578063bfb231d21461026e578063ca7dd375146102b4578063ee4739cb146102f1576100c2565b806382367b2d146101d35780638ed05978146101fc578063937d7f1114610218576100c2565b806304d1afe7146100c75780633e328218146100f057806365e17c9d1461010c5780636bfb0d01146101375780636f2229f2146101625780637fd6f15c146101a8575b600080fd5b3480156100d357600080fd5b506100ee60048036038101906100e991906116b6565b61031a565b005b61010a60048036038101906101059190611731565b61076f565b005b34801561011857600080fd5b50610121610d8a565b60405161012e919061177f565b60405180910390f35b34801561014357600080fd5b5061014c610dae565b60405161015991906117a9565b60405180910390f35b34801561016e57600080fd5b50610189600480360381019061018491906117f0565b610db4565b60405161019f9a999897969594939291906118aa565b60405180910390f35b3480156101b457600080fd5b506101bd610e92565b6040516101ca91906117a9565b60405180910390f35b3480156101df57600080fd5b506101fa60048036038101906101f59190611946565b610eb6565b005b61021660048036038101906102119190611946565b610f26565b005b34801561022457600080fd5b5061022d6110b1565b60405161023a919061177f565b60405180910390f35b34801561024f57600080fd5b506102586110d5565b6040516102659190611b3e565b60405180910390f35b34801561027a57600080fd5b5061029560048036038101906102909190611731565b6112cb565b6040516102ab9a999897969594939291906118aa565b60405180910390f35b3480156102c057600080fd5b506102db60048036038101906102d69190611731565b61138c565b6040516102e891906117a9565b60405180910390f35b3480156102fd57600080fd5b5061031860048036038101906103139190611731565b6113ef565b005b6000831161035d576040517f08c379a000000000000000000000000000000000000000000000000000000000815260040161035490611bbd565b60405180910390fd5b60008081548092919061036f90611c0c565b919050555060405180610140016040528060005481526020018673ffffffffffffffffffffffffffffffffffffffff168152602001858152602001600081526020018481526020013373ffffffffffffffffffffffffffffffffffffffff1681526020016000151581526020013373ffffffffffffffffffffffffffffffffffffffff1681526020018381526020018281525060016000805481526020019081526020016000206000820151816000015560208201518160010160006101000a81548173ffffffffffffffffffffffffffffffffffffffff021916908373ffffffffffffffffffffffffffffffffffffffff16021790555060408201518160020155606082015181600301556080820151816004015560a08201518160050160006101000a81548173ffffffffffffffffffffffffffffffffffffffff021916908373ffffffffffffffffffffffffffffffffffffffff16021790555060c08201518160050160146101000a81548160ff02191690831515021790555060e08201518160060160006101000a81548173ffffffffffffffffffffffffffffffffffffffff021916908373ffffffffffffffffffffffffffffffffffffffff16021790555061010082015181600701556101208201518160080155905050600260003373ffffffffffffffffffffffffffffffffffffffff1673ffffffffffffffffffffffffffffffffffffffff16815260200190815260200160002060016000805481526020019081526020016000209080600181540180825580915050600190039060005260206000209060090201600090919091909150600082015481600001556001820160009054906101000a900473ffffffffffffffffffffffffffffffffffffffff168160010160006101000a81548173ffffffffffffffffffffffffffffffffffffffff021916908373ffffffffffffffffffffffffffffffffffffffff1602179055506002820154816002015560038201548160030155600482015481600401556005820160009054906101000a900473ffffffffffffffffffffffffffffffffffffffff168160050160006101000a81548173ffffffffffffffffffffffffffffffffffffffff021916908373ffffffffffffffffffffffffffffffffffffffff1602179055506005820160149054906101000a900460ff168160050160146101000a81548160ff0219169083151502179055506006820160009054906101000a900473ffffffffffffffffffffffffffffffffffffffff168160060160006101000a81548173ffffffffffffffffffffffffffffffffffffffff021916908373ffffffffffffffffffffffffffffffffffffffff160217905550600782015481600701556008820154816008015550505050505050565b60008111801561078157506000548111155b6107c0576040517f08c379a00000000000000000000000000000000000000000000000000000000081526004016107b790611ca0565b60405180910390fd5b60006107cb8261138c565b905080341115610810576040517f08c379a000000000000000000000000000000000000000000000000000000000815260040161080790611d32565b60405180910390fd5b60006001600084815260200190815260200160002090508060050160149054906101000a900460ff1615610879576040517f08c379a000000000000000000000000000000000000000000000000000000000815260040161087090611d9e565b60405180910390fd5b60006108888260000154611472565b90506000811115610aad57600081606484600701546108a79190611ded565b6108b19190611e1e565b905060008360050160009054906101000a900473ffffffffffffffffffffffffffffffffffffffff1673ffffffffffffffffffffffffffffffffffffffff168460060160009054906101000a900473ffffffffffffffffffffffffffffffffffffffff1673ffffffffffffffffffffffffffffffffffffffff161461094f5782606485600801546109429190611ded565b61094c9190611e1e565b90505b7f000000000000000000000000000000000000000000000000000000000000000073ffffffffffffffffffffffffffffffffffffffff166108fc839081150290604051600060405180830381858888f193505050501580156109b5573d6000803e3d6000fd5b508360060160009054906101000a900473ffffffffffffffffffffffffffffffffffffffff1673ffffffffffffffffffffffffffffffffffffffff166108fc829081150290604051600060405180830381858888f19350505050158015610a20573d6000803e3d6000fd5b508360050160009054906101000a900473ffffffffffffffffffffffffffffffffffffffff1673ffffffffffffffffffffffffffffffffffffffff166108fc82848760040154610a709190611e60565b610a7a9190611e60565b9081150290604051600060405180830381858888f19350505050158015610aa5573d6000803e3d6000fd5b505050610b1d565b8160050160009054906101000a900473ffffffffffffffffffffffffffffffffffffffff1673ffffffffffffffffffffffffffffffffffffffff166108fc83600401549081150290604051600060405180830381858888f19350505050158015610b1b573d6000803e3d6000fd5b505b7f000000000000000000000000000000000000000000000000000000000000000073ffffffffffffffffffffffffffffffffffffffff166108fc836004015485610b679190611e60565b9081150290604051600060405180830381858888f19350505050158015610b92573d6000803e3d6000fd5b5060008260050160146101000a81548160ff0219169083151502179055508160010160009054906101000a900473ffffffffffffffffffffffffffffffffffffffff1673ffffffffffffffffffffffffffffffffffffffff166323b872dd303385600201546040518463ffffffff1660e01b8152600401610c1593929190611ea3565b600060405180830381600087803b158015610c2f57600080fd5b505af1158015610c43573d6000803e3d6000fd5b50505050338260050160006101000a81548173ffffffffffffffffffffffffffffffffffffffff021916908373ffffffffffffffffffffffffffffffffffffffff1602179055508160040154826003018190555060008260050160146101000a81548160ff0219169083151502179055503373ffffffffffffffffffffffffffffffffffffffff168260050160009054906101000a900473ffffffffffffffffffffffffffffffffffffffff1673ffffffffffffffffffffffffffffffffffffffff168360010160009054906101000a900473ffffffffffffffffffffffffffffffffffffffff1673ffffffffffffffffffffffffffffffffffffffff167f8b4c9c8a607d67b321582dd8461041b1dc2ceeca70c8b7f37f8e02095cf2e76d8786600201548760040154604051610d7c93929190611eda565b60405180910390a450505050565b7f000000000000000000000000000000000000000000000000000000000000000081565b60005481565b60026020528160005260406000208181548110610dd057600080fd5b9060005260206000209060090201600091509150508060000154908060010160009054906101000a900473ffffffffffffffffffffffffffffffffffffffff16908060020154908060030154908060040154908060050160009054906101000a900473ffffffffffffffffffffffffffffffffffffffff16908060050160149054906101000a900460ff16908060060160009054906101000a900473ffffffffffffffffffffffffffffffffffffffff1690806007015490806008015490508a565b7f000000000000000000000000000000000000000000000000000000000000000081565b600081118015610ec857506000548111155b610f07576040517f08c379a0000000000000000000000000000000000000000000000000000000008152600401610efe90611ca0565b60405180910390fd5b8160016000838152602001908152602001600020600401819055505050565b600082118015610f3857506000548211155b610f77576040517f08c379a0000000000000000000000000000000000000000000000000000000008152600401610f6e90611ca0565b60405180910390fd5b60006001600084815260200190815260200160002090503373ffffffffffffffffffffffffffffffffffffffff168160050160009054906101000a900473ffffffffffffffffffffffffffffffffffffffff1673ffffffffffffffffffffffffffffffffffffffff1614610fea57600080fd5b60018160050160146101000a81548160ff021916908315150217905550806004015481600301819055508181600401819055503373ffffffffffffffffffffffffffffffffffffffff168160010160009054906101000a900473ffffffffffffffffffffffffffffffffffffffff1673ffffffffffffffffffffffffffffffffffffffff167f655a0cf9c8db81512be9a76dc1c5ae5380b8816ce6ad659cd61b715e2999d59a60005486866040516110a493929190611eda565b60405180910390a3505050565b7f000000000000000000000000000000000000000000000000000000000000000081565b6060600260003373ffffffffffffffffffffffffffffffffffffffff1673ffffffffffffffffffffffffffffffffffffffff168152602001908152602001600020805480602002602001604051908101604052809291908181526020016000905b828210156112c2578382906000526020600020906009020160405180610140016040529081600082015481526020016001820160009054906101000a900473ffffffffffffffffffffffffffffffffffffffff1673ffffffffffffffffffffffffffffffffffffffff1673ffffffffffffffffffffffffffffffffffffffff1681526020016002820154815260200160038201548152602001600482015481526020016005820160009054906101000a900473ffffffffffffffffffffffffffffffffffffffff1673ffffffffffffffffffffffffffffffffffffffff1673ffffffffffffffffffffffffffffffffffffffff1681526020016005820160149054906101000a900460ff161515151581526020016006820160009054906101000a900473ffffffffffffffffffffffffffffffffffffffff1673ffffffffffffffffffffffffffffffffffffffff1673ffffffffffffffffffffffffffffffffffffffff1681526020016007820154815260200160088201548152505081526020019060010190611136565b50505050905090565b60016020528060005260406000206000915090508060000154908060010160009054906101000a900473ffffffffffffffffffffffffffffffffffffffff16908060020154908060030154908060040154908060050160009054906101000a900473ffffffffffffffffffffffffffffffffffffffff16908060050160149054906101000a900460ff16908060060160009054906101000a900473ffffffffffffffffffffffffffffffffffffffff1690806007015490806008015490508a565b600060647f000000000000000000000000000000000000000000000000000000000000000060646113bd9190611f11565b60016000858152602001908152602001600020600401546113de9190611e1e565b6113e89190611ded565b9050919050565b60008111801561140157506000548111155b611440576040517f08c379a000000000000000000000000000000000000000000000000000000000815260040161143790611ca0565b60405180910390fd5b60006001600083815260200190815260200160002060050160146101000a81548160ff02191690831515021790555050565b6000806001600084815260200190815260200160002060405180610140016040529081600082015481526020016001820160009054906101000a900473ffffffffffffffffffffffffffffffffffffffff1673ffffffffffffffffffffffffffffffffffffffff1673ffffffffffffffffffffffffffffffffffffffff1681526020016002820154815260200160038201548152602001600482015481526020016005820160009054906101000a900473ffffffffffffffffffffffffffffffffffffffff1673ffffffffffffffffffffffffffffffffffffffff1673ffffffffffffffffffffffffffffffffffffffff1681526020016005820160149054906101000a900460ff161515151581526020016006820160009054906101000a900473ffffffffffffffffffffffffffffffffffffffff1673ffffffffffffffffffffffffffffffffffffffff1673ffffffffffffffffffffffffffffffffffffffff168152602001600782015481526020016008820154815250509050806080015181606001516116039190611e60565b915050919050565b600080fd5b600073ffffffffffffffffffffffffffffffffffffffff82169050919050565b600061163b82611610565b9050919050565b600061164d82611630565b9050919050565b61165d81611642565b811461166857600080fd5b50565b60008135905061167a81611654565b92915050565b6000819050919050565b61169381611680565b811461169e57600080fd5b50565b6000813590506116b08161168a565b92915050565b600080600080600060a086880312156116d2576116d161160b565b5b60006116e08882890161166b565b95505060206116f1888289016116a1565b9450506040611702888289016116a1565b9350506060611713888289016116a1565b9250506080611724888289016116a1565b9150509295509295909350565b6000602082840312156117475761174661160b565b5b6000611755848285016116a1565b91505092915050565b600061176982611610565b9050919050565b6117798161175e565b82525050565b60006020820190506117946000830184611770565b92915050565b6117a381611680565b82525050565b60006020820190506117be600083018461179a565b92915050565b6117cd81611630565b81146117d857600080fd5b50565b6000813590506117ea816117c4565b92915050565b600080604083850312156118075761180661160b565b5b6000611815858286016117db565b9250506020611826858286016116a1565b9150509250929050565b6000819050919050565b600061185561185061184b84611610565b611830565b611610565b9050919050565b60006118678261183a565b9050919050565b60006118798261185c565b9050919050565b6118898161186e565b82525050565b60008115159050919050565b6118a48161188f565b82525050565b6000610140820190506118c0600083018d61179a565b6118cd602083018c611880565b6118da604083018b61179a565b6118e7606083018a61179a565b6118f4608083018961179a565b61190160a0830188611770565b61190e60c083018761189b565b61191b60e0830186611770565b61192961010083018561179a565b61193761012083018461179a565b9b9a5050505050505050505050565b6000806040838503121561195d5761195c61160b565b5b600061196b858286016116a1565b925050602061197c858286016116a1565b9150509250929050565b600081519050919050565b600082825260208201905092915050565b6000819050602082019050919050565b6119bb81611680565b82525050565b6119ca8161186e565b82525050565b6119d98161175e565b82525050565b6119e88161188f565b82525050565b61014082016000820151611a0560008501826119b2565b506020820151611a1860208501826119c1565b506040820151611a2b60408501826119b2565b506060820151611a3e60608501826119b2565b506080820151611a5160808501826119b2565b5060a0820151611a6460a08501826119d0565b5060c0820151611a7760c08501826119df565b5060e0820151611a8a60e08501826119d0565b50610100820151611a9f6101008501826119b2565b50610120820151611ab46101208501826119b2565b50505050565b6000611ac683836119ee565b6101408301905092915050565b6000602082019050919050565b6000611aeb82611986565b611af58185611991565b9350611b00836119a2565b8060005b83811015611b31578151611b188882611aba565b9750611b2383611ad3565b925050600181019050611b04565b5085935050505092915050565b60006020820190508181036000830152611b588184611ae0565b905092915050565b600082825260208201905092915050565b7f5072696365206d7573742062652067726561746572207468616e207a65726f00600082015250565b6000611ba7601f83611b60565b9150611bb282611b71565b602082019050919050565b60006020820190508181036000830152611bd681611b9a565b9050919050565b7f4e487b7100000000000000000000000000000000000000000000000000000000600052601160045260246000fd5b6000611c1782611680565b91507fffffffffffffffffffffffffffffffffffffffffffffffffffffffffffffffff8203611c4957611c48611bdd565b5b600182019050919050565b7f6974656d20646f65736e27742065786973740000000000000000000000000000600082015250565b6000611c8a601283611b60565b9150611c9582611c54565b602082019050919050565b60006020820190508181036000830152611cb981611c7d565b9050919050565b7f6e6f7420656e6f75676820657468657220746f20636f766572206974656d207060008201527f7269636520616e64206d61726b65742066656500000000000000000000000000602082015250565b6000611d1c603383611b60565b9150611d2782611cc0565b604082019050919050565b60006020820190508181036000830152611d4b81611d0f565b9050919050565b7f6974656d20616c726561647920736f6c64000000000000000000000000000000600082015250565b6000611d88601183611b60565b9150611d9382611d52565b602082019050919050565b60006020820190508181036000830152611db781611d7b565b9050919050565b7f4e487b7100000000000000000000000000000000000000000000000000000000600052601260045260246000fd5b6000611df882611680565b9150611e0383611680565b925082611e1357611e12611dbe565b5b828204905092915050565b6000611e2982611680565b9150611e3483611680565b9250828202611e4281611680565b91508282048414831517611e5957611e58611bdd565b5b5092915050565b6000611e6b82611680565b9150611e7683611680565b9250828203905081811115611e8e57611e8d611bdd565b5b92915050565b611e9d81611630565b82525050565b6000606082019050611eb86000830186611e94565b611ec56020830185611e94565b611ed2604083018461179a565b949350505050565b6000606082019050611eef600083018661179a565b611efc602083018561179a565b611f09604083018461179a565b949350505050565b6000611f1c82611680565b9150611f2783611680565b9250828201905080821115611f3f57611f3e611bdd565b5b9291505056fea26469706673582212202812b15849d3fa25af010ff59164beb4b68dde96464d4373705c83908bba499364736f6c63430008180033",
  "linkReferences": {},
  "deployedLinkReferences": {}
}